{
  "_format": "hh-sol-artifact-1",
  "contractName": "BLEUFINFTMarketplace",
  "sourceName": "contracts/Marketplace.sol",
  "abi": [
    {
      "inputs": [
        {
          "internalType": "address",
          "name": "nftContract_",
          "type": "address"
        },
        {
          "internalType": "address",
          "name": "WBNBAddress_",
          "type": "address"
        },
        {
          "internalType": "address",
          "name": "adminRecoveryAddress_",
          "type": "address"
        },
        {
          "internalType": "address",
          "name": "payableAddress",
          "type": "address"
        }
      ],
      "stateMutability": "nonpayable",
      "type": "constructor"
    },
    {
      "anonymous": false,
      "inputs": [
        {
          "indexed": true,
          "internalType": "uint256",
          "name": "tokenId",
          "type": "uint256"
        },
        {
          "indexed": false,
          "internalType": "address",
          "name": "nftContractAddress",
          "type": "address"
        },
        {
          "indexed": false,
          "internalType": "address",
          "name": "sender",
          "type": "address"
        },
        {
          "indexed": false,
          "internalType": "uint256",
          "name": "value",
          "type": "uint256"
        }
      ],
      "name": "AuctionBid",
      "type": "event"
    },
    {
      "anonymous": false,
      "inputs": [
        {
          "indexed": true,
          "internalType": "uint256",
          "name": "tokenId",
          "type": "uint256"
        },
        {
          "indexed": false,
          "internalType": "address",
          "name": "nftContractAddress",
          "type": "address"
        },
        {
          "indexed": false,
          "internalType": "address",
          "name": "Creator",
          "type": "address"
        }
      ],
      "name": "AuctionCanceled",
      "type": "event"
    },
    {
      "anonymous": false,
      "inputs": [
        {
          "indexed": true,
          "internalType": "uint256",
          "name": "tokenId",
          "type": "uint256"
        },
        {
          "indexed": false,
          "internalType": "uint256",
          "name": "auctionStart",
          "type": "uint256"
        },
        {
          "indexed": false,
          "internalType": "uint256",
          "name": "duration",
          "type": "uint256"
        },
        {
          "indexed": false,
          "internalType": "uint256",
          "name": "reservePrice",
          "type": "uint256"
        },
        {
          "indexed": false,
          "internalType": "string",
          "name": "paymentType",
          "type": "string"
        },
        {
          "indexed": false,
          "internalType": "address",
          "name": "Creator",
          "type": "address"
        }
      ],
      "name": "AuctionCreated",
      "type": "event"
    },
    {
      "anonymous": false,
      "inputs": [
        {
          "indexed": true,
          "internalType": "uint256",
          "name": "tokenId",
          "type": "uint256"
        },
        {
          "indexed": false,
          "internalType": "address",
          "name": "nftContractAddress",
          "type": "address"
        },
        {
          "indexed": false,
          "internalType": "address",
          "name": "Creator",
          "type": "address"
        },
        {
          "indexed": false,
          "internalType": "address",
          "name": "winner",
          "type": "address"
        },
        {
          "indexed": false,
          "internalType": "uint256",
          "name": "amount",
          "type": "uint256"
        },
        {
          "indexed": false,
          "internalType": "address",
          "name": "nftCreator",
          "type": "address"
        }
      ],
      "name": "AuctionEnded",
      "type": "event"
    },
    {
      "anonymous": false,
      "inputs": [
        {
          "indexed": false,
          "internalType": "uint256",
          "name": "nftID",
          "type": "uint256"
        }
      ],
      "name": "Burned",
      "type": "event"
    },
    {
      "anonymous": false,
      "inputs": [
        {
          "indexed": true,
          "internalType": "uint256",
          "name": "tokenId",
          "type": "uint256"
        },
        {
          "indexed": false,
          "internalType": "address",
          "name": "Creator",
          "type": "address"
        },
        {
          "indexed": false,
          "internalType": "uint256",
          "name": "amount",
          "type": "uint256"
        }
      ],
      "name": "CreatorFeePercentTransfer",
      "type": "event"
    },
    {
      "anonymous": false,
      "inputs": [
        {
          "indexed": true,
          "internalType": "address",
          "name": "sender",
          "type": "address"
        },
        {
          "indexed": true,
          "internalType": "address",
          "name": "receiver",
          "type": "address"
        },
        {
          "indexed": false,
          "internalType": "uint256",
          "name": "tokenId",
          "type": "uint256"
        }
      ],
      "name": "Giveaway",
      "type": "event"
    },
    {
      "anonymous": false,
      "inputs": [
        {
          "indexed": true,
          "internalType": "address",
          "name": "minter",
          "type": "address"
        },
        {
          "indexed": false,
          "internalType": "uint256",
          "name": "price",
          "type": "uint256"
        },
        {
          "indexed": false,
          "internalType": "uint256",
          "name": "nftID",
          "type": "uint256"
        },
        {
          "indexed": false,
          "internalType": "string",
          "name": "uri",
          "type": "string"
        },
        {
          "indexed": false,
          "internalType": "bool",
          "name": "status",
          "type": "bool"
        }
      ],
      "name": "Minted",
      "type": "event"
    },
    {
      "anonymous": false,
      "inputs": [
        {
          "indexed": true,
          "internalType": "address",
          "name": "owner",
          "type": "address"
        },
        {
          "indexed": false,
          "internalType": "uint256",
          "name": "nftID",
          "type": "uint256"
        },
        {
          "indexed": false,
          "internalType": "bool",
          "name": "isListed",
          "type": "bool"
        }
      ],
      "name": "NftListStatus",
      "type": "event"
    },
    {
      "anonymous": false,
      "inputs": [
        {
          "indexed": true,
          "internalType": "address",
          "name": "previousOwner",
          "type": "address"
        },
        {
          "indexed": true,
          "internalType": "address",
          "name": "newOwner",
          "type": "address"
        }
      ],
      "name": "OwnershipTransferred",
      "type": "event"
    },
    {
      "anonymous": false,
      "inputs": [
        {
          "indexed": false,
          "internalType": "address",
          "name": "account",
          "type": "address"
        }
      ],
      "name": "Paused",
      "type": "event"
    },
    {
      "anonymous": false,
      "inputs": [
        {
          "indexed": true,
          "internalType": "address",
          "name": "owner",
          "type": "address"
        },
        {
          "indexed": false,
          "internalType": "uint256",
          "name": "oldPrice",
          "type": "uint256"
        },
        {
          "indexed": false,
          "internalType": "uint256",
          "name": "newPrice",
          "type": "uint256"
        },
        {
          "indexed": false,
          "internalType": "uint256",
          "name": "nftID",
          "type": "uint256"
        }
      ],
      "name": "PriceUpdate",
      "type": "event"
    },
    {
      "anonymous": false,
      "inputs": [
        {
          "indexed": true,
          "internalType": "address",
          "name": "previousOwner",
          "type": "address"
        },
        {
          "indexed": true,
          "internalType": "address",
          "name": "newOwner",
          "type": "address"
        },
        {
          "indexed": false,
          "internalType": "uint256",
          "name": "price",
          "type": "uint256"
        },
        {
          "indexed": false,
          "internalType": "uint256",
          "name": "nftID",
          "type": "uint256"
        }
      ],
      "name": "Purchase",
      "type": "event"
    },
    {
      "anonymous": false,
      "inputs": [
        {
          "indexed": false,
          "internalType": "address",
          "name": "",
          "type": "address"
        },
        {
          "indexed": false,
          "internalType": "uint256",
          "name": "",
          "type": "uint256"
        }
      ],
      "name": "Received",
      "type": "event"
    },
    {
      "anonymous": false,
      "inputs": [
        {
          "indexed": false,
          "internalType": "uint256",
          "name": "amount",
          "type": "uint256"
        },
        {
          "indexed": false,
          "internalType": "address",
          "name": "wallet",
          "type": "address"
        }
      ],
      "name": "TokensWithdrawn",
      "type": "event"
    },
    {
      "anonymous": false,
      "inputs": [
        {
          "indexed": false,
          "internalType": "address",
          "name": "account",
          "type": "address"
        }
      ],
      "name": "Unpaused",
      "type": "event"
    },
    {
      "anonymous": false,
      "inputs": [
        {
          "indexed": false,
          "internalType": "uint256",
          "name": "amount",
          "type": "uint256"
        },
        {
          "indexed": false,
          "internalType": "address",
          "name": "wallet",
          "type": "address"
        }
      ],
      "name": "Withdrawn",
      "type": "event"
    },
    {
      "inputs": [],
      "name": "MIN_BID_INCREMENT_PERCENT",
      "outputs": [
        {
          "internalType": "uint8",
          "name": "",
          "type": "uint8"
        }
      ],
      "stateMutability": "view",
      "type": "function"
    },
    {
      "inputs": [],
      "name": "TIME_BUFFER",
      "outputs": [
        {
          "internalType": "uint16",
          "name": "",
          "type": "uint16"
        }
      ],
      "stateMutability": "view",
      "type": "function"
    },
    {
      "inputs": [],
      "name": "WBNBAddress",
      "outputs": [
        {
          "internalType": "address",
          "name": "",
          "type": "address"
        }
      ],
      "stateMutability": "view",
      "type": "function"
    },
    {
      "inputs": [
        {
          "internalType": "bool",
          "name": "_isNew",
          "type": "bool"
        },
        {
          "internalType": "uint256[]",
          "name": "_newtokenIds",
          "type": "uint256[]"
        },
        {
          "internalType": "address[]",
          "name": "_creators",
          "type": "address[]"
        },
        {
          "internalType": "uint256[]",
          "name": "_prices",
          "type": "uint256[]"
        },
        {
          "internalType": "address[]",
          "name": "_owners",
          "type": "address[]"
        },
        {
          "internalType": "uint256[]",
          "name": "_royalties",
          "type": "uint256[]"
        },
        {
          "internalType": "bool[]",
          "name": "_listedMap",
          "type": "bool[]"
        }
      ],
      "name": "addCreatorMap",
      "outputs": [],
      "stateMutability": "nonpayable",
      "type": "function"
    },
    {
      "inputs": [],
      "name": "adminRecoveryAddress",
      "outputs": [
        {
          "internalType": "address",
          "name": "",
          "type": "address"
        }
      ],
      "stateMutability": "view",
      "type": "function"
    },
    {
      "inputs": [],
      "name": "adminRecoveryEnabled",
      "outputs": [
        {
          "internalType": "bool",
          "name": "",
          "type": "bool"
        }
      ],
      "stateMutability": "view",
      "type": "function"
    },
    {
      "inputs": [
        {
          "internalType": "uint256",
          "name": "",
          "type": "uint256"
        }
      ],
      "name": "auctions",
      "outputs": [
        {
          "internalType": "uint256",
          "name": "amount",
          "type": "uint256"
        },
        {
          "internalType": "uint256",
          "name": "duration",
          "type": "uint256"
        },
        {
          "internalType": "uint256",
          "name": "firstBidTime",
          "type": "uint256"
        },
        {
          "internalType": "uint256",
          "name": "reservePrice",
          "type": "uint256"
        },
        {
          "internalType": "string",
          "name": "paymentType",
          "type": "string"
        },
        {
          "internalType": "uint8",
          "name": "CreatorFeePercent",
          "type": "uint8"
        },
        {
          "internalType": "address",
          "name": "Creator",
          "type": "address"
        },
        {
          "internalType": "address payable",
          "name": "bidder",
          "type": "address"
        },
        {
          "internalType": "address payable",
          "name": "fundsRecipient",
          "type": "address"
        }
      ],
      "stateMutability": "view",
      "type": "function"
    },
    {
      "inputs": [
        {
          "internalType": "uint256",
          "name": "_id",
          "type": "uint256"
        }
      ],
      "name": "burn",
      "outputs": [],
      "stateMutability": "nonpayable",
      "type": "function"
    },
    {
      "inputs": [
        {
          "internalType": "uint256",
          "name": "_id",
          "type": "uint256"
        },
        {
          "internalType": "uint256",
          "name": "_price",
          "type": "uint256"
        },
        {
          "internalType": "string",
          "name": "paymentType",
          "type": "string"
        }
      ],
      "name": "buy",
      "outputs": [],
      "stateMutability": "payable",
      "type": "function"
    },
    {
      "inputs": [
        {
          "internalType": "uint256",
          "name": "_id",
          "type": "uint256"
        },
        {
          "internalType": "address",
          "name": "receiver",
          "type": "address"
        },
        {
          "internalType": "uint256",
          "name": "_price",
          "type": "uint256"
        },
        {
          "internalType": "string",
          "name": "paymentType",
          "type": "string"
        },
        {
          "internalType": "uint256",
          "name": "_royalty",
          "type": "uint256"
        },
        {
          "internalType": "string",
          "name": "_tokenUri",
          "type": "string"
        }
      ],
      "name": "buyNew",
      "outputs": [],
      "stateMutability": "payable",
      "type": "function"
    },
    {
      "inputs": [
        {
          "internalType": "uint256",
          "name": "tokenId",
          "type": "uint256"
        }
      ],
      "name": "cancelAuction",
      "outputs": [],
      "stateMutability": "nonpayable",
      "type": "function"
    },
    {
      "inputs": [
        {
          "internalType": "uint256",
          "name": "_id",
          "type": "uint256"
        }
      ],
      "name": "closeTrade",
      "outputs": [],
      "stateMutability": "nonpayable",
      "type": "function"
    },
    {
      "inputs": [
        {
          "internalType": "uint256",
          "name": "tokenId",
          "type": "uint256"
        },
        {
          "internalType": "bool",
          "name": "_isNew",
          "type": "bool"
        },
        {
          "internalType": "string",
          "name": "_tokenUri",
          "type": "string"
        },
        {
          "internalType": "uint256",
          "name": "duration",
          "type": "uint256"
        },
        {
          "internalType": "uint256",
          "name": "reservePrice",
          "type": "uint256"
        },
        {
          "internalType": "string",
          "name": "paymentType",
          "type": "string"
        },
        {
          "internalType": "address",
          "name": "Creator",
          "type": "address"
        }
      ],
      "name": "createAuction",
      "outputs": [],
      "stateMutability": "nonpayable",
      "type": "function"
    },
    {
      "inputs": [
        {
          "internalType": "uint256",
          "name": "tokenId",
          "type": "uint256"
        },
        {
          "internalType": "string",
          "name": "paymentType",
          "type": "string"
        },
        {
          "internalType": "uint256",
          "name": "amount",
          "type": "uint256"
        }
      ],
      "name": "createBid",
      "outputs": [],
      "stateMutability": "payable",
      "type": "function"
    },
    {
      "inputs": [],
      "name": "creator",
      "outputs": [
        {
          "internalType": "address",
          "name": "",
          "type": "address"
        }
      ],
      "stateMutability": "view",
      "type": "function"
    },
    {
      "inputs": [
        {
          "internalType": "uint256",
          "name": "",
          "type": "uint256"
        }
      ],
      "name": "creatorMap",
      "outputs": [
        {
          "internalType": "address",
          "name": "",
          "type": "address"
        }
      ],
      "stateMutability": "view",
      "type": "function"
    },
    {
      "inputs": [
        {
          "internalType": "uint256",
          "name": "tokenId",
          "type": "uint256"
        }
      ],
      "name": "endAuction",
      "outputs": [],
      "stateMutability": "nonpayable",
      "type": "function"
    },
    {
      "inputs": [],
      "name": "getCreator",
      "outputs": [],
      "stateMutability": "nonpayable",
      "type": "function"
    },
    {
      "inputs": [],
      "name": "getVersion",
      "outputs": [
        {
          "internalType": "uint256",
          "name": "version",
          "type": "uint256"
        }
      ],
      "stateMutability": "pure",
      "type": "function"
    },
    {
      "inputs": [
        {
          "internalType": "address",
          "name": "_to",
          "type": "address"
        },
        {
          "internalType": "uint256",
          "name": "_id",
          "type": "uint256"
        },
        {
          "internalType": "uint256",
          "name": "_price",
          "type": "uint256"
        },
        {
          "internalType": "string",
          "name": "paymentType",
          "type": "string"
        },
        {
          "internalType": "uint256",
          "name": "_royalty",
          "type": "uint256"
        },
        {
          "internalType": "string",
          "name": "_tokenUri",
          "type": "string"
        }
      ],
      "name": "giveaway",
      "outputs": [],
      "stateMutability": "nonpayable",
      "type": "function"
    },
    {
      "inputs": [
        {
          "internalType": "uint256",
          "name": "",
          "type": "uint256"
        }
      ],
      "name": "listedMap",
      "outputs": [
        {
          "internalType": "bool",
          "name": "",
          "type": "bool"
        }
      ],
      "stateMutability": "view",
      "type": "function"
    },
    {
      "inputs": [],
      "name": "marketFeeForBNB",
      "outputs": [
        {
          "internalType": "uint256",
          "name": "",
          "type": "uint256"
        }
      ],
      "stateMutability": "view",
      "type": "function"
    },
    {
      "inputs": [],
      "name": "marketFeeForToken",
      "outputs": [
        {
          "internalType": "uint256",
          "name": "",
          "type": "uint256"
        }
      ],
      "stateMutability": "view",
      "type": "function"
    },
    {
      "inputs": [],
      "name": "nftContract",
      "outputs": [
        {
          "internalType": "address",
          "name": "",
          "type": "address"
        }
      ],
      "stateMutability": "view",
      "type": "function"
    },
    {
      "inputs": [
        {
          "internalType": "uint256",
          "name": "_id",
          "type": "uint256"
        },
        {
          "internalType": "uint256",
          "name": "_price",
          "type": "uint256"
        },
        {
          "internalType": "string",
          "name": "paymentType",
          "type": "string"
        }
      ],
      "name": "openTrade",
      "outputs": [],
      "stateMutability": "nonpayable",
      "type": "function"
    },
    {
      "inputs": [],
      "name": "owner",
      "outputs": [
        {
          "internalType": "address",
          "name": "",
          "type": "address"
        }
      ],
      "stateMutability": "view",
      "type": "function"
    },
    {
      "inputs": [
        {
          "internalType": "uint256",
          "name": "",
          "type": "uint256"
        }
      ],
      "name": "ownerMap",
      "outputs": [
        {
          "internalType": "address",
          "name": "",
          "type": "address"
        }
      ],
      "stateMutability": "view",
      "type": "function"
    },
    {
      "inputs": [],
      "name": "pauseContract",
      "outputs": [],
      "stateMutability": "nonpayable",
      "type": "function"
    },
    {
      "inputs": [],
      "name": "paused",
      "outputs": [
        {
          "internalType": "bool",
          "name": "",
          "type": "bool"
        }
      ],
      "stateMutability": "view",
      "type": "function"
    },
    {
      "inputs": [
        {
          "internalType": "uint256",
          "name": "",
          "type": "uint256"
        }
      ],
      "name": "paymentTokenMap",
      "outputs": [
        {
          "internalType": "string",
          "name": "",
          "type": "string"
        }
      ],
      "stateMutability": "view",
      "type": "function"
    },
    {
      "inputs": [
        {
          "internalType": "string",
          "name": "",
          "type": "string"
        }
      ],
      "name": "payoutAddressMap",
      "outputs": [
        {
          "internalType": "address",
          "name": "",
          "type": "address"
        }
      ],
      "stateMutability": "view",
      "type": "function"
    },
    {
      "inputs": [
        {
          "internalType": "uint256",
          "name": "",
          "type": "uint256"
        }
      ],
      "name": "price",
      "outputs": [
        {
          "internalType": "uint256",
          "name": "",
          "type": "uint256"
        }
      ],
      "stateMutability": "view",
      "type": "function"
    },
    {
      "inputs": [
        {
          "internalType": "uint256",
          "name": "amount",
          "type": "uint256"
        }
      ],
      "name": "recoverBNB",
      "outputs": [
        {
          "internalType": "bool",
          "name": "success",
          "type": "bool"
        }
      ],
      "stateMutability": "nonpayable",
      "type": "function"
    },
    {
      "inputs": [
        {
          "internalType": "uint256",
          "name": "tokenId",
          "type": "uint256"
        }
      ],
      "name": "recoverNFT",
      "outputs": [],
      "stateMutability": "nonpayable",
      "type": "function"
    },
    {
      "inputs": [],
      "name": "renounceOwnership",
      "outputs": [],
      "stateMutability": "nonpayable",
      "type": "function"
    },
    {
      "inputs": [
        {
          "internalType": "uint256",
          "name": "",
          "type": "uint256"
        }
      ],
      "name": "royaltyMap",
      "outputs": [
        {
          "internalType": "uint256",
          "name": "",
          "type": "uint256"
        }
      ],
      "stateMutability": "view",
      "type": "function"
    },
    {
      "inputs": [
        {
          "internalType": "uint256",
          "name": "_newMarketFeeForBNB",
          "type": "uint256"
        }
      ],
      "name": "setMarketFeeForBNB",
      "outputs": [],
      "stateMutability": "nonpayable",
      "type": "function"
    },
    {
      "inputs": [
        {
          "internalType": "uint256",
          "name": "_newMarketFeeForToken",
          "type": "uint256"
        }
      ],
      "name": "setMarketFeeForToken",
      "outputs": [],
      "stateMutability": "nonpayable",
      "type": "function"
    },
    {
      "inputs": [
        {
          "internalType": "string",
          "name": "_paymentToken",
          "type": "string"
        },
        {
          "internalType": "address",
          "name": "_tokenAddress",
          "type": "address"
        },
        {
          "internalType": "address",
          "name": "_payoutAddress",
          "type": "address"
        }
      ],
      "name": "setTokenAddress",
      "outputs": [],
      "stateMutability": "nonpayable",
      "type": "function"
    },
    {
      "inputs": [
        {
          "internalType": "string",
          "name": "",
          "type": "string"
        }
      ],
      "name": "tokenAddressMap",
      "outputs": [
        {
          "internalType": "address",
          "name": "",
          "type": "address"
        }
      ],
      "stateMutability": "view",
      "type": "function"
    },
    {
      "inputs": [
        {
          "internalType": "address",
          "name": "newOwner",
          "type": "address"
        }
      ],
      "name": "transferOwnership",
      "outputs": [],
      "stateMutability": "nonpayable",
      "type": "function"
    },
    {
      "inputs": [],
      "name": "turnOffAdminRecovery",
      "outputs": [],
      "stateMutability": "nonpayable",
      "type": "function"
    },
    {
      "inputs": [],
      "name": "unpauseContract",
      "outputs": [],
      "stateMutability": "nonpayable",
      "type": "function"
    },
    {
      "inputs": [
        {
          "internalType": "uint256",
          "name": "_tokenId",
          "type": "uint256"
        },
        {
          "internalType": "bool",
          "name": "shouldBeListed",
          "type": "bool"
        }
      ],
      "name": "updateListingStatus",
      "outputs": [
        {
          "internalType": "bool",
          "name": "",
          "type": "bool"
        }
      ],
      "stateMutability": "nonpayable",
      "type": "function"
    },
    {
      "inputs": [
        {
          "internalType": "uint256",
          "name": "_tokenId",
          "type": "uint256"
        },
        {
          "internalType": "uint256",
          "name": "_price",
          "type": "uint256"
        },
        {
          "internalType": "string",
          "name": "paymentType",
          "type": "string"
        }
      ],
      "name": "updatePrice",
      "outputs": [
        {
          "internalType": "bool",
          "name": "",
          "type": "bool"
        }
      ],
      "stateMutability": "nonpayable",
      "type": "function"
    },
    {
      "inputs": [],
      "name": "withdraw",
      "outputs": [],
      "stateMutability": "nonpayable",
      "type": "function"
    },
    {
      "inputs": [
        {
          "internalType": "string",
          "name": "_tokenName",
          "type": "string"
        },
        {
          "internalType": "uint256",
          "name": "_amount",
          "type": "uint256"
        }
      ],
      "name": "withdrawToken",
      "outputs": [],
      "stateMutability": "nonpayable",
      "type": "function"
    },
    {
      "stateMutability": "payable",
      "type": "receive"
    }
  ],
  "bytecode": "0x60e06040526001600055603c600355601e6004553480156200002057600080fd5b5060405162005d4638038062005d4683398101604081905262000043916200026b565b6200004e33620001fc565b6040516301ffc9a760e01b81526380ac58cd60e01b60048201526001600160a01b038516906301ffc9a79060240160206040518083038186803b1580156200009557600080fd5b505afa158015620000aa573d6000803e3d6000fd5b505050506040513d601f19601f82011682018060405250810190620000d09190620002c7565b620001475760405162461bcd60e51b815260206004820152603f60248201527f436f6e7472616374206174206e6674436f6e74726163745f206164647265737360448201527f20646f6573206e6f7420737570706f7274204e465420696e7465726661636500606482015260840160405180910390fd5b6001600160601b0319606085811b821660805284811b821660a05283901b1660c0526040518190600e906200018890652327aa25a2a760d11b815260060190565b9081526040805191829003602001822080546001600160a01b039485166001600160a01b0319918216179091556221272160e91b8352600e6003840152905191829003602301909120805493909216921691909117905550506005805461ffff60a01b1916600160a01b17905550620002f0565b600180546001600160a01b038381166001600160a01b0319831681179093556040519116919082907f8be0079c531659141344cd1fd0a4f28419497f9722a3daafe3b4186f6b6457e090600090a35050565b80516001600160a01b03811681146200026657600080fd5b919050565b6000806000806080858703121562000281578384fd5b6200028c856200024e565b93506200029c602086016200024e565b9250620002ac604086016200024e565b9150620002bc606086016200024e565b905092959194509250565b600060208284031215620002d9578081fd5b81518015158114620002e9578182fd5b9392505050565b60805160601c60a05160601c60c05160601c6159286200041e600039600081816109c201528181610de2015281816117cc01528181612102015281816123720152818161251d015281816125d801528181612aca01528181612e5301528181613198015281816138af01528181613e1401528181613f26015281816149e10152614a8401526000818161060301528181614b330152614bc801526000818161092e01528181610cef015281816115f3015281816117220152818161244b0152818161260701528181612866015281816129030152818161298601528181613250015281816133f2015281816134e7015281816135da0152818161379501528181613c8401528181613d38015281816142c9015281816147d70152818161485b0152614d1b01526159286000f3fe60806040526004361061030c5760003560e01c80638da5cb5b1161019a578063b33712c5116100e1578063ca1ce2af1161008a578063f2fde38b11610064578063f2fde38b14610970578063f603939b14610990578063fafe0d1f146109b05761034b565b8063ca1ce2af146108ef578063d56d229d1461091c578063f27da5e5146109505761034b565b8063bc8ba28f116100bb578063bc8ba28f14610878578063bc996819146108a8578063c97a413a146108cf5761034b565b8063b33712c514610823578063b9a2de3a14610838578063ba8a12b4146108585761034b565b806398c05591116101435780639a8bfa2b1161011d5780639a8bfa2b146107a0578063a39cea84146107d6578063a6e9d546146107f65761034b565b806398c055911461075857806399331fdf1461076d5780639944ed62146107805761034b565b80639486e0a4116101745780639486e0a4146106f857806396b5a7551461071857806398214bcb146107385761034b565b80638da5cb5b146106835780639037bab2146106a1578063941d66db146106b75761034b565b8063439766ce1161025e5780636c32e2fe1161020757806371602e9a116101e157806371602e9a1461063a5780637788a3871461064d578063892d5d941461066d5761034b565b80636c32e2fe146105d157806370081fb9146105f1578063715018a6146106255761034b565b8063571a26a011610238578063571a26a01461053b5780635c975abb146105705780636749b0ba146105905761034b565b8063439766ce146104cd57806353653131146104e257806353a636dd1461050b5761034b565b80631cf57dc5116102c057806338a4cb5b1161029a57806338a4cb5b146104625780633ccfd60b1461049857806342966c68146104ad5761034b565b80631cf57dc51461040257806326a49e371461042257806333209e651461044f5761034b565b80630d8e6e2c116102f15780630d8e6e2c146103af5780630ee2cb10146103cd57806317aa7f03146103e25761034b565b806302d05d3f146103505780630d6b33781461038d5761034b565b3661034b57604080513381523460208201527f88a5966d370b9919b20f3e2c13ff65706f196a4e32cc2c12bf57088f88525874910160405180910390a1005b600080fd5b34801561035c57600080fd5b50600554610370906001600160a01b031681565b6040516001600160a01b0390911681526020015b60405180910390f35b34801561039957600080fd5b506103ad6103a83660046153a6565b6109e4565b005b3480156103bb57600080fd5b5060015b604051908152602001610384565b3480156103d957600080fd5b506103ad610a98565b3480156103ee57600080fd5b506103ad6103fd3660046153a6565b610adb565b34801561040e57600080fd5b506103ad61041d366004615452565b610b8a565b34801561042e57600080fd5b506103bf61043d3660046153a6565b60066020526000908152604090205481565b6103ad61045d3660046154f7565b610f3a565b34801561046e57600080fd5b5061037061047d3660046153a6565b6009602052600090815260409020546001600160a01b031681565b3480156104a457600080fd5b506103ad611666565b3480156104b957600080fd5b506103ad6104c83660046153a6565b6116f3565b3480156104d957600080fd5b506103ad6117ca565b3480156104ee57600080fd5b506104f861038481565b60405161ffff9091168152602001610384565b34801561051757600080fd5b5061052b610526366004615545565b6118ad565b6040519015158152602001610384565b34801561054757600080fd5b5061055b6105563660046153a6565b611996565b604051610384999897969594939291906156fa565b34801561057c57600080fd5b5061052b600554600160a81b900460ff1690565b34801561059c57600080fd5b506103706105ab3660046152c6565b8051602081830181018051600e825292820191909301209152546001600160a01b031681565b3480156105dd57600080fd5b506103ad6105ec3660046151c6565b611a7a565b3480156105fd57600080fd5b506103707f000000000000000000000000000000000000000000000000000000000000000081565b34801561063157600080fd5b506103ad611f5f565b6103ad6106483660046153d6565b611fc5565b34801561065957600080fd5b5061052b600554600160a01b900460ff1690565b34801561067957600080fd5b506103bf60035481565b34801561068f57600080fd5b506001546001600160a01b0316610370565b3480156106ad57600080fd5b506103bf60045481565b3480156106c357600080fd5b506103706106d23660046152c6565b8051602081830181018051600c825292820191909301209152546001600160a01b031681565b34801561070457600080fd5b506103ad6107133660046153a6565b61251b565b34801561072457600080fd5b506103ad6107333660046153a6565b612666565b34801561074457600080fd5b5061052b610753366004615423565b61296d565b34801561076457600080fd5b506103ad612ac8565b6103ad61077b366004615545565b612b92565b34801561078c57600080fd5b506103ad61079b36600461511b565b61333a565b3480156107ac57600080fd5b506103706107bb3660046153a6565b600b602052600090815260409020546001600160a01b031681565b3480156107e257600080fd5b506103ad6107f13660046153a6565b6136aa565b34801561080257600080fd5b506103bf6108113660046153a6565b600a6020526000908152604090205481565b34801561082f57600080fd5b506103ad6138ad565b34801561084457600080fd5b506103ad6108533660046153a6565b61398a565b34801561086457600080fd5b506103ad610873366004615301565b614350565b34801561088457600080fd5b5061052b6108933660046153a6565b60076020526000908152604090205460ff1681565b3480156108b457600080fd5b506108bd600a81565b60405160ff9091168152602001610384565b3480156108db57600080fd5b506103ad6108ea366004615363565b614432565b3480156108fb57600080fd5b5061090f61090a3660046153a6565b614643565b6040516103849190615676565b34801561092857600080fd5b506103707f000000000000000000000000000000000000000000000000000000000000000081565b34801561095c57600080fd5b506103ad61096b366004615545565b6146dd565b34801561097c57600080fd5b506103ad61098b3660046150e3565b6148fe565b34801561099c57600080fd5b5061052b6109ab3660046153a6565b6149dd565b3480156109bc57600080fd5b506103707f000000000000000000000000000000000000000000000000000000000000000081565b6001546001600160a01b03163314610a435760405162461bcd60e51b815260206004820181905260248201527f4f776e61626c653a2063616c6c6572206973206e6f7420746865206f776e657260448201526064015b60405180910390fd5b60018111610a935760405162461bcd60e51b815260206004820152601b60248201527f496e76616c6964204d61726b657446656520466f7220546f6b656e00000000006044820152606401610a3a565b600455565b6005546040516001600160a01b0390911681527f62e78cea01bee320cd4e420270b5ea74000d11b0c9f74754ebdbfc544b05a258906020015b60405180910390a1565b6001546001600160a01b03163314610b355760405162461bcd60e51b815260206004820181905260248201527f4f776e61626c653a2063616c6c6572206973206e6f7420746865206f776e65726044820152606401610a3a565b60018111610b855760405162461bcd60e51b815260206004820152601960248201527f496e76616c6964204d61726b657446656520466f7220424e42000000000000006044820152606401610a3a565b600355565b6001600080828254610b9c91906157b3565b9091555050600054610bb7600554600160a81b900460ff1690565b15610bf95760405162461bcd60e51b815260206004820152601260248201527110dbdb9d1c9858dd081a5cc81c185d5cd95960721b6044820152606401610a3a565b87610c0381614aaf565b610c4f5760405162461bcd60e51b815260206004820152601660248201527f41756374696f6e20616c726561647920657869737473000000000000000000006044820152606401610a3a565b6001600160a01b038316610c6257600080fd5b8715610d5e57610c76600280546001019055565b6000610c8160025490565b60008181526006602090815260408083208a9055600d82529091208751929c508c9350610cb2929091880190614e61565b5060008a8152600960205260409081902080546001600160a01b0319166001600160a01b0387811691909117909155905163399f900b60e21b81527f00000000000000000000000000000000000000000000000000000000000000009091169063e67e402c90610d2a908d9033908d90600401615689565b600060405180830381600087803b158015610d4457600080fd5b505af1158015610d58573d6000803e3d6000fd5b50505050505b6000898152600b6020526040902080546001600160a01b03191633179055610d878986866146dd565b600042905060405180610120016040528060008152602001888152602001828152602001878152602001868152602001603260ff168152602001856001600160a01b0316815260200160006001600160a01b031681526020017f00000000000000000000000000000000000000000000000000000000000000006001600160a01b0316815250600860008c8152602001908152602001600020600082015181600001556020820151816001015560408201518160020155606082015181600301556080820151816004019080519060200190610e64929190614e61565b5060a082015160058201805460c085015160ff90931674ffffffffffffffffffffffffffffffffffffffffff19909116176101006001600160a01b0393841681029190911790915560e08401516006840180546001600160a01b03199081169285169290921790559301516007909201805490931691161790556040518a907faf28756bc1e562d40cb95e5867314a58926ea413130138ca11b3b2d6db787c6190610f189084908b908b908b908b906156ba565b60405180910390a250506000548114610f3057600080fd5b5050505050505050565b6001600080828254610f4c91906157b3565b9091555050600054610f67600554600160a81b900460ff1690565b15610fa95760405162461bcd60e51b815260206004820152601260248201527110dbdb9d1c9858dd081a5cc81c185d5cd95960721b6044820152606401610a3a565b83610fb381614aaf565b156110005760405162461bcd60e51b815260206004820152601560248201527f41756374696f6e20646f65736e277420657869737400000000000000000000006044820152606401610a3a565b60008581526008602052604090206002015485901580611027575061102481614ad6565b42105b6110735760405162461bcd60e51b815260206004820152600f60248201527f41756374696f6e206578706972656400000000000000000000000000000000006044820152606401610a3a565b600084116110c35760405162461bcd60e51b815260206004820152601d60248201527f416d6f756e74206d7573742062652067726561746572207468616e20300000006044820152606401610a3a565b60008681526008602090815260409182902091516110e59260040191016155db565b604051602081830303815290604052805190602001208560405160200161110c91906155bf565b604051602081830303815290604052805190602001201461116f5760405162461bcd60e51b815260206004820152601d60248201527f5061796d656e7454797065206973206e6f74206d69736d6174636865640000006044820152606401610a3a565b6040516221272160e91b602082015260230160405160208183030381529060405280519060200120856040516020016111a891906155bf565b604051602081830303815290604052805190602001201415611218573484146112135760405162461bcd60e51b815260206004820152601e60248201527f416d6f756e7420646f65736e277420657175616c206d73672e76616c756500006044820152606401610a3a565b6112fa565b600c8560405161122891906155bf565b908152604051908190036020018120546370a0823160e01b82523360048301526001600160a01b0316906370a082319060240160206040518083038186803b15801561127357600080fd5b505afa158015611287573d6000803e3d6000fd5b505050506040513d601f19601f820116820180604052508101906112ab91906153be565b8410156112fa5760405162461bcd60e51b815260206004820152601a60248201527f496e73756666696369656e7420746f6b656e2062616c616e63650000000000006044820152606401610a3a565b6000868152600860205260409020546113735760008681526008602052604090206003015484101561136e5760405162461bcd60e51b815260206004820152601d60248201527f4d7573742062696420726573657276655072696365206f72206d6f72650000006044820152606401610a3a565b611561565b6000868152600860205260409020546113b39061139e9060649061139890600a614af8565b90614b0b565b60008881526008602052604090205490614b17565b8410156114285760405162461bcd60e51b815260206004820152603f60248201527f4d75737420626964206d6f7265207468616e206c61737420626964206279204d60448201527f494e5f4249445f494e4352454d454e545f50455243454e5420616d6f756e74006064820152608401610a3a565b6040516221272160e91b6020820152602301604051602081830303815290604052805190602001208560405160200161146191906155bf565b6040516020818303038152906040528051906020012014156114a55760008681526008602052604090206006810154905461136e916001600160a01b031690614b23565b600c856040516114b591906155bf565b90815260408051602092819003830181205460008a81526008909452919092206006810154905463a9059cbb60e01b84526001600160a01b0391821660048501526024840152169063a9059cbb90604401602060405180830381600087803b15801561152057600080fd5b505af1158015611534573d6000803e3d6000fd5b505050506040513d601f19601f8201168201806040525081019061155891906151aa565b61156157600080fd5b600086815260086020526040902084815560060180546001600160a01b0319163317905561159142610384614b17565b61159a87614ad6565b10156115e5576115be6115ac87614ad6565b6115b842610384614b17565b90614c48565b600087815260086020526040812060010180549091906115df9084906157b3565b90915550505b604080516001600160a01b037f000000000000000000000000000000000000000000000000000000000000000016815233602082015290810185905286907f3bb6f40a8aeb5dda33c401527cd8f6bd335757d2b1ed2827f0321a090c66b8249060600160405180910390a25050600054811461166057600080fd5b50505050565b6001546001600160a01b031633146116c05760405162461bcd60e51b815260206004820181905260248201527f4f776e61626c653a2063616c6c6572206973206e6f7420746865206f776e65726044820152606401610a3a565b6040514790339082156108fc029083906000818181858888f193505050501580156116ef573d6000803e3d6000fd5b5050565b6040517f42966c68000000000000000000000000000000000000000000000000000000008152600481018290527f00000000000000000000000000000000000000000000000000000000000000006001600160a01b0316906342966c6890602401600060405180830381600087803b15801561176e57600080fd5b505af1158015611782573d6000803e3d6000fd5b50505060009182525060096020908152604080832080546001600160a01b0319908116909155600a8352818420849055600b8352818420805490911690556006909152812055565b7f00000000000000000000000000000000000000000000000000000000000000006001600160a01b0316331480156118105750611810600554600160a01b900460ff1690565b61186a5760405162461bcd60e51b815260206004820152602560248201527f43616c6c657220646f6573206e6f7420686176652061646d696e2070726976696044820152646c6567657360d81b6064820152608401610a3a565b6005805460ff60a81b1916600160a81b1790556040513381527f62e78cea01bee320cd4e420270b5ea74000d11b0c9f74754ebdbfc544b05a25890602001610ad1565b600083815260066020908152604080832054600b9092528220546001600160a01b0316331461191e5760405162461bcd60e51b815260206004820152601c60248201527f4572726f722c20796f7520617265206e6f7420746865206f776e6572000000006044820152606401610a3a565b6000858152600660209081526040808320879055600d8252909120845161194792860190614e61565b50604080518281526020810186905290810186905233907f8647dab5101cbe18afb171756e9753802f9d66725bf2346b079b8b1a275e01169060600160405180910390a2506001949350505050565b6008602052600090815260409020805460018201546002830154600384015460048501805494959394929391926119cc9061584d565b80601f01602080910402602001604051908101604052809291908181526020018280546119f89061584d565b8015611a455780601f10611a1a57610100808354040283529160200191611a45565b820191906000526020600020905b815481529060010190602001808311611a2857829003601f168201915b50505060058401546006850154600790950154939460ff8216946001600160a01b036101009093048316945090821692501689565b6001546001600160a01b03163314611ad45760405162461bcd60e51b815260206004820181905260248201527f4f776e61626c653a2063616c6c6572206973206e6f7420746865206f776e65726044820152606401610a3a565b8451865114611b4b5760405162461bcd60e51b815260206004820152602860248201527f746f6b656e49447320616e642063726561746f727320617265206e6f74206d6960448201527f736d6174636865640000000000000000000000000000000000000000000000006064820152608401610a3a565b8351865114611bac5760405162461bcd60e51b815260206004820152602760248201527f746f6b656e49447320616e64205f70726963657320617265206e6f74206d69736044820152661b585d18da195960ca1b6064820152608401610a3a565b8251865114611c0d5760405162461bcd60e51b815260206004820152602760248201527f746f6b656e49447320616e64205f6f776e65727320617265206e6f74206d69736044820152661b585d18da195960ca1b6064820152608401610a3a565b8151865114611c715760405162461bcd60e51b815260206004820152602a60248201527f746f6b656e49447320616e64205f726f79616c7469657320617265206e6f74206044820152691b5a5cdb585d18da195960b21b6064820152608401610a3a565b8051865114611cd55760405162461bcd60e51b815260206004820152602a60248201527f746f6b656e49447320616e64205f6c69737465644d617020617265206e6f74206044820152691b5a5cdb585d18da195960b21b6064820152608401610a3a565b8615611ce15760006002555b60005b8651811015610f3057611cfb600280546001019055565b858181518110611d1b57634e487b7160e01b600052603260045260246000fd5b602002602001015160096000898481518110611d4757634e487b7160e01b600052603260045260246000fd5b6020026020010151815260200190815260200160002060006101000a8154816001600160a01b0302191690836001600160a01b03160217905550848181518110611da157634e487b7160e01b600052603260045260246000fd5b602002602001015160066000898481518110611dcd57634e487b7160e01b600052603260045260246000fd5b6020026020010151815260200190815260200160002081905550838181518110611e0757634e487b7160e01b600052603260045260246000fd5b6020026020010151600b6000898481518110611e3357634e487b7160e01b600052603260045260246000fd5b6020026020010151815260200190815260200160002060006101000a8154816001600160a01b0302191690836001600160a01b03160217905550828181518110611e8d57634e487b7160e01b600052603260045260246000fd5b6020026020010151600a6000898481518110611eb957634e487b7160e01b600052603260045260246000fd5b6020026020010151815260200190815260200160002081905550818181518110611ef357634e487b7160e01b600052603260045260246000fd5b602002602001015160076000898481518110611f1f57634e487b7160e01b600052603260045260246000fd5b6020026020010151815260200190815260200160002060006101000a81548160ff0219169083151502179055508080611f5790615888565b915050611ce4565b6001546001600160a01b03163314611fb95760405162461bcd60e51b815260206004820181905260248201527f4f776e61626c653a2063616c6c6572206973206e6f7420746865206f776e65726044820152606401610a3a565b611fc36000614c54565b565b611fd3600280546001019055565b6000611fde60025490565b60008181526006602090815260408083208990558a8352600d8252909120865192935061200f929091870190614e61565b506000818152600a60209081526040808320869055600982529182902080546001600160a01b038a166001600160a01b03199182168117909255600580549091169091179055905161206b91016221272160e91b815260030190565b604051602081830303815290604052805190602001208460405160200161209291906155bf565b60405160208183030381529060405280519060200120141561212e5760035460008281526006602052604081205490916120d4916103e8916113989190614af8565b600083815260066020526040812054919250906120f19083614c48565b90506120fd8882614b23565b6121277f000000000000000000000000000000000000000000000000000000000000000083614b23565b5050612408565b60008181526006602052604090819020549051600c9061214f9087906155bf565b908152604051908190036020018120546370a0823160e01b82523360048301526001600160a01b0316906370a082319060240160206040518083038186803b15801561219a57600080fd5b505afa1580156121ae573d6000803e3d6000fd5b505050506040513d601f19601f820116820180604052508101906121d291906153be565b10156122465760405162461bcd60e51b815260206004820152603260248201527f746f6b656e2062616c616e63652073686f756c6420626520677265617465722060448201527f7468616e2074686520627579416d6f756e7400000000000000000000000000006064820152608401610a3a565b600454600082815260066020526040812054909161226c916103e8916113989190614af8565b600083815260066020526040812054919250906122899083614c48565b9050600c8660405161229b91906155bf565b908152604051908190036020018120546323b872dd60e01b82523360048301526001600160a01b038a811660248401526044830184905216906323b872dd90606401602060405180830381600087803b1580156122f757600080fd5b505af115801561230b573d6000803e3d6000fd5b505050506040513d601f19601f8201168201806040525081019061232f91906151aa565b61233857600080fd5b600c8660405161234891906155bf565b908152604051908190036020018120546323b872dd60e01b82523360048301526001600160a01b037f0000000000000000000000000000000000000000000000000000000000000000811660248401526044830185905216906323b872dd90606401602060405180830381600087803b1580156123c457600080fd5b505af11580156123d8573d6000803e3d6000fd5b505050506040513d601f19601f820116820180604052508101906123fc91906151aa565b61240557600080fd5b50505b6000818152600760209081526040808320805460ff19169055600b9091529081902080546001600160a01b03191633908117909155905163399f900b60e21b81527f00000000000000000000000000000000000000000000000000000000000000006001600160a01b03169163e67e402c9161248a9185918790600401615689565b600060405180830381600087803b1580156124a457600080fd5b505af11580156124b8573d6000803e3d6000fd5b5050506000828152600660209081526040918290205482519081529081018490523392506001600160a01b038916917f46661dab58311a6838247afecbee792192b4f27fc8b3e7168c66bc55ec2e404e910160405180910390a350505050505050565b7f00000000000000000000000000000000000000000000000000000000000000006001600160a01b0316331480156125615750612561600554600160a01b900460ff1690565b6125bb5760405162461bcd60e51b815260206004820152602560248201527f43616c6c657220646f6573206e6f7420686176652061646d696e2070726976696044820152646c6567657360d81b6064820152608401610a3a565b6040516323b872dd60e01b81523060048201526001600160a01b037f000000000000000000000000000000000000000000000000000000000000000081166024830152604482018390527f000000000000000000000000000000000000000000000000000000000000000016906323b872dd90606401600060405180830381600087803b15801561264b57600080fd5b505af115801561265f573d6000803e3d6000fd5b5050505050565b600160008082825461267891906157b3565b90915550506000548161268a81614aaf565b156126d75760405162461bcd60e51b815260206004820152601560248201527f41756374696f6e20646f65736e277420657869737400000000000000000000006044820152606401610a3a565b600083815260086020526040902060050154839061010090046001600160a01b031633146127555760405162461bcd60e51b815260206004820152602560248201527f43616e206f6e6c792062652063616c6c65642062792061756374696f6e20437260448201526432b0ba37b960d91b6064820152608401610a3a565b600084815260086020526040902054156127b15760405162461bcd60e51b815260206004820152601760248201527f41756374696f6e20616c726561647920737461727465640000000000000000006044820152606401610a3a565b6000848152600860205260408120600581015482825560018201839055600282018390556003820183905561010090046001600160a01b0316916127f86004830182614ee5565b5060058101805474ffffffffffffffffffffffffffffffffffffffffff191690556006810180546001600160a01b03199081169091556007909101805490911690556040516323b872dd60e01b81523060048201526001600160a01b038281166024830152604482018790527f000000000000000000000000000000000000000000000000000000000000000016906323b872dd90606401600060405180830381600087803b1580156128aa57600080fd5b505af11580156128be573d6000803e3d6000fd5b5050506000868152600760209081526040808320805460ff19169055600b82529182902080546001600160a01b0319166001600160a01b0386811691821790925583517f00000000000000000000000000000000000000000000000000000000000000009092168252918101919091528792507f31e46b3372adff8978a18a1c543a6b3a925ee693bdf7a7c54df36f30f87d290e910160405180910390a250505060005481146116ef57600080fd5b6040516331a9108f60e11b8152600481018390526000907f00000000000000000000000000000000000000000000000000000000000000006001600160a01b031690636352211e9060240160206040518083038186803b1580156129d057600080fd5b505afa1580156129e4573d6000803e3d6000fd5b505050506040513d601f19601f82011682018060405250810190612a0891906150ff565b6001600160a01b0316336001600160a01b031614612a685760405162461bcd60e51b815260206004820152601c60248201527f4572726f722c20796f7520617265206e6f7420746865206f776e6572000000006044820152606401610a3a565b600083815260076020908152604091829020805460ff191685151590811790915582518681529182015233917f3fd63d9ca8dc693a1b9911e664951294721009a4f6239c862d6719a160a1edfc910160405180910390a250600192915050565b7f00000000000000000000000000000000000000000000000000000000000000006001600160a01b031633148015612b0e5750612b0e600554600160a01b900460ff1690565b612b685760405162461bcd60e51b815260206004820152602560248201527f43616c6c657220646f6573206e6f7420686176652061646d696e2070726976696044820152646c6567657360d81b6064820152608401610a3a565b600580547fffffffffffffffffffffff00ffffffffffffffffffffffffffffffffffffffff169055565b612b9b83614ca6565b6000838152600660205260409020548214612bf85760405162461bcd60e51b815260206004820152601960248201527f4572726f722c207072696365206973206e6f74206d61746368000000000000006044820152606401610a3a565b6000838152600d60209081526040918290209151612c179291016155db565b6040516020818303038152906040528051906020012081604051602001612c3e91906155bf565b6040516020818303038152906040528051906020012014612ca15760405162461bcd60e51b815260206004820181905260248201527f4572726f722c205061796d656e742054797065206973206e6f74206d617463686044820152606401610a3a565b6000838152600b6020908152604080832054600a8352818420546006909352908320546001600160a01b039091169291612ce2916064916113989190614af8565b6040516221272160e91b60208201529091506023016040516020818303038152906040528051906020012083604051602001612d1e91906155bf565b604051602081830303815290604052805190602001201415612e7f57600085815260066020526040902054341015612dbe5760405162461bcd60e51b815260206004820152602a60248201527f6d73672e76616c75652073686f756c6420626520657175616c20746f2074686560448201527f20627579416d6f756e74000000000000000000000000000000000000000000006064820152608401610a3a565b6003546000868152600660205260408120549091612de4916103e8916113989190614af8565b60008781526006602052604081205491925090612e079084906115b89085614c48565b6000888152600b6020526040902054909150612e2c906001600160a01b031682614b23565b600087815260096020526040902054612e4e906001600160a01b031684614b23565b612e787f000000000000000000000000000000000000000000000000000000000000000083614b23565b505061322e565b60008581526006602052604090819020549051600c90612ea09086906155bf565b908152604051908190036020018120546370a0823160e01b82523360048301526001600160a01b0316906370a082319060240160206040518083038186803b158015612eeb57600080fd5b505afa158015612eff573d6000803e3d6000fd5b505050506040513d601f19601f82011682018060405250810190612f2391906153be565b1015612f975760405162461bcd60e51b815260206004820152603260248201527f746f6b656e2062616c616e63652073686f756c6420626520677265617465722060448201527f7468616e2074686520627579416d6f756e7400000000000000000000000000006064820152608401610a3a565b6004546000868152600660205260408120549091612fbd916103e8916113989190614af8565b60008781526006602052604081205491925090612fe09084906115b89085614c48565b9050600c85604051612ff291906155bf565b90815260408051602092819003830181205460008b8152600b90945291909220546323b872dd60e01b83523360048401526001600160a01b0390811660248401526044830184905216906323b872dd90606401602060405180830381600087803b15801561305f57600080fd5b505af1158015613073573d6000803e3d6000fd5b505050506040513d601f19601f8201168201806040525081019061309791906151aa565b6130a057600080fd5b600c856040516130b091906155bf565b90815260408051602092819003830181205460008b8152600990945291909220546323b872dd60e01b83523360048401526001600160a01b0390811660248401526044830186905216906323b872dd90606401602060405180830381600087803b15801561311d57600080fd5b505af1158015613131573d6000803e3d6000fd5b505050506040513d601f19601f8201168201806040525081019061315591906151aa565b61315e57600080fd5b600c8560405161316e91906155bf565b908152604051908190036020018120546323b872dd60e01b82523360048301526001600160a01b037f0000000000000000000000000000000000000000000000000000000000000000811660248401526044830185905216906323b872dd90606401602060405180830381600087803b1580156131ea57600080fd5b505af11580156131fe573d6000803e3d6000fd5b505050506040513d601f19601f8201168201806040525081019061322291906151aa565b61322b57600080fd5b50505b6040516323b872dd60e01b8152306004820152336024820152604481018690527f00000000000000000000000000000000000000000000000000000000000000006001600160a01b0316906323b872dd90606401600060405180830381600087803b15801561329c57600080fd5b505af11580156132b0573d6000803e3d6000fd5b5050506000868152600b6020908152604080832080546001600160a01b0319163390811790915560078352818420805460ff1916905560068352928190205481519081529182018990529192506001600160a01b038516917f46661dab58311a6838247afecbee792192b4f27fc8b3e7168c66bc55ec2e404e910160405180910390a35050505050565b846134a55761334d600280546001019055565b600061335860025490565b6000818152600660209081526040808320899055898352600d82529091208651929350613389929091870190614e61565b506000818152600a602090815260408083208690556009825280832080546001600160a01b0319908116331790915560078352818420805460ff19169055600b9092529182902080546001600160a01b038b811691909316179055905163399f900b60e21b81527f00000000000000000000000000000000000000000000000000000000000000009091169063e67e402c9061342d9084908b908790600401615689565b600060405180830381600087803b15801561344757600080fd5b505af115801561345b573d6000803e3d6000fd5b50506040518381526001600160a01b038a1692503391507f4abe537933cf6821c78fd52b40560aa40ad6f997168b53f9ea55a9b34420069b9060200160405180910390a3506136a2565b60008581526007602052604090205460ff16613548576040516323b872dd60e01b81523360048201526001600160a01b038781166024830152604482018790527f000000000000000000000000000000000000000000000000000000000000000016906323b872dd90606401600060405180830381600087803b15801561352b57600080fd5b505af115801561353f573d6000803e3d6000fd5b50505050613641565b6000858152600b60205260409020546001600160a01b031633146135ae5760405162461bcd60e51b815260206004820152601360248201527f73656e646572206973206e6f74206f776e6572000000000000000000000000006044820152606401610a3a565b6040516323b872dd60e01b81523060048201526001600160a01b038781166024830152604482018790527f000000000000000000000000000000000000000000000000000000000000000016906323b872dd90606401600060405180830381600087803b15801561361e57600080fd5b505af1158015613632573d6000803e3d6000fd5b50505060008690525060076020525b6000858152600b602090815260409182902080546001600160a01b0319166001600160a01b038a16908117909155915187815233917f4abe537933cf6821c78fd52b40560aa40ad6f997168b53f9ea55a9b34420069b910160405180910390a35b505050505050565b6000818152600b60205260409020546001600160a01b031633146137105760405162461bcd60e51b815260206004820152601360248201527f73656e646572206973206e6f74206f776e6572000000000000000000000000006044820152606401610a3a565b60008181526007602052604090205460ff1615156001146137735760405162461bcd60e51b815260206004820152600e60248201527f416c726561647920636f6c7365640000000000000000000000000000000000006044820152606401610a3a565b6040516323b872dd60e01b8152306004820152336024820152604481018290527f00000000000000000000000000000000000000000000000000000000000000006001600160a01b0316906323b872dd90606401600060405180830381600087803b1580156137e157600080fd5b505af11580156137f5573d6000803e3d6000fd5b5050506000828152600760209081526040808320805460ff19169055600890915290206005015461010090046001600160a01b031633141590506138aa576000818152600860205260408120818155600181018290556002810182905560038101829055906138676004830182614ee5565b5060058101805474ffffffffffffffffffffffffffffffffffffffffff191690556006810180546001600160a01b03199081169091556007909101805490911690555b50565b7f00000000000000000000000000000000000000000000000000000000000000006001600160a01b0316331480156138f357506138f3600554600160a01b900460ff1690565b61394d5760405162461bcd60e51b815260206004820152602560248201527f43616c6c657220646f6573206e6f7420686176652061646d696e2070726976696044820152646c6567657360d81b6064820152608401610a3a565b6005805460ff60a81b191690556040513381527f5db9ee0a495bf2e6ff9c91a7834c1ba4fdd244a5e8aa4e537bd38aeae4b073aa90602001610ad1565b600160008082825461399c91906157b3565b90915550506000546139b7600554600160a81b900460ff1690565b156139f95760405162461bcd60e51b815260206004820152601260248201527110dbdb9d1c9858dd081a5cc81c185d5cd95960721b6044820152606401610a3a565b600082815260086020526040902060020154829015801590613a235750613a1f81614ad6565b4210155b613a6f5760405162461bcd60e51b815260206004820152601860248201527f41756374696f6e206861736e277420636f6d706c6574656400000000000000006044820152606401610a3a565b600083815260086020526040902060050154839061010090046001600160a01b0316331480613ab757506000818152600860205260409020600601546001600160a01b031633145b613b115760405162461bcd60e51b815260206004820152602560248201527f43616e206f6e6c792062652063616c6c65642062792061756374696f6e20437260448201526432b0ba37b960d91b6064820152608401610a3a565b6000848152600860205260408120600681015481546005830154600490930180546001600160a01b03938416959294610100900490931692613b529061584d565b80601f0160208091040260200160405190810160405280929190818152602001828054613b7e9061584d565b8015613bcb5780601f10613ba057610100808354040283529160200191613bcb565b820191906000526020600020905b815481529060010190602001808311613bae57829003601f168201915b50505060008b81526008602052604081208181556001810182905560028101829055600381018290559394509150613c0890506004830182614ee5565b5060058101805474ffffffffffffffffffffffffffffffffffffffffff191690556006810180546001600160a01b03199081169091556007909101805490911690556001600160a01b038416613d0c576040516323b872dd60e01b81523060048201526001600160a01b038381166024830152604482018a90527f000000000000000000000000000000000000000000000000000000000000000016906323b872dd90606401600060405180830381600087803b158015613cc857600080fd5b505af1158015613cdc573d6000803e3d6000fd5b5050506000898152600b6020526040902080546001600160a01b0319166001600160a01b0385161790555061429b565b6040516323b872dd60e01b81523060048201526001600160a01b038581166024830152604482018a90527f000000000000000000000000000000000000000000000000000000000000000016906323b872dd90606401600060405180830381600087803b158015613d7c57600080fd5b505af1158015613d90573d6000803e3d6000fd5b50505050604051602001613dad906221272160e91b815260030190565b6040516020818303038152906040528051906020012081604051602001613dd491906155bf565b604051602081830303815290604052805190602001201415613ed3576000613e0d6103e861139860035487614af890919063ffffffff16565b9050613e397f000000000000000000000000000000000000000000000000000000000000000082614b23565b6000898152600960205260409020546001600160a01b0384811691161415613e7357613e6e83613e698684614c48565b614b23565b613ecd565b6000898152600a6020526040812054613e9490606490611398908890614af8565b60008b815260096020526040902054909150613eb9906001600160a01b031682614b23565b613ecb84613e69846115b88986614c48565b505b50614273565b6000613ef06103e861139860045487614af890919063ffffffff16565b9050600c82604051613f0291906155bf565b9081526040519081900360200181205463a9059cbb60e01b82526001600160a01b037f00000000000000000000000000000000000000000000000000000000000000008116600484015260248301849052169063a9059cbb90604401602060405180830381600087803b158015613f7857600080fd5b505af1158015613f8c573d6000803e3d6000fd5b505050506040513d601f19601f82011682018060405250810190613fb091906151aa565b613fb957600080fd5b6000898152600960205260409020546001600160a01b03848116911614156140b857600c82604051613feb91906155bf565b908152604051908190036020019020546001600160a01b031663a9059cbb846140148785614c48565b6040517fffffffff0000000000000000000000000000000000000000000000000000000060e085901b1681526001600160a01b0390921660048301526024820152604401602060405180830381600087803b15801561407257600080fd5b505af1158015614086573d6000803e3d6000fd5b505050506040513d601f19601f820116820180604052508101906140aa91906151aa565b6140b357600080fd5b614271565b6000898152600a60205260408120546140d990606490611398908890614af8565b9050600c836040516140eb91906155bf565b90815260408051602092819003830181205460008e81526009909452919092205463a9059cbb60e01b83526001600160a01b03908116600484015260248301849052169063a9059cbb90604401602060405180830381600087803b15801561415257600080fd5b505af1158015614166573d6000803e3d6000fd5b505050506040513d601f19601f8201168201806040525081019061418a91906151aa565b61419357600080fd5b600c836040516141a391906155bf565b908152604051908190036020019020546001600160a01b031663a9059cbb856141d0856115b88a87614c48565b6040517fffffffff0000000000000000000000000000000000000000000000000000000060e085901b1681526001600160a01b0390921660048301526024820152604401602060405180830381600087803b15801561422e57600080fd5b505af1158015614242573d6000803e3d6000fd5b505050506040513d601f19601f8201168201806040525081019061426691906151aa565b61426f57600080fd5b505b505b6000888152600b6020526040902080546001600160a01b0319166001600160a01b0386161790555b6000888152600760209081526040808320805460ff1916905560098252918290205482516001600160a01b037f00000000000000000000000000000000000000000000000000000000000000008116825280871693820193909352828816938101939093526060830186905216608082015288907f28e48213ce86ac133ca69274548aa4243a6e2433eee55213af64b46a2e719caf9060a00160405180910390a250505050505060005481146116ef57600080fd5b6001546001600160a01b031633146143aa5760405162461bcd60e51b815260206004820181905260248201527f4f776e61626c653a2063616c6c6572206973206e6f7420746865206f776e65726044820152606401610a3a565b81600c846040516143bb91906155bf565b908152602001604051809103902060006101000a8154816001600160a01b0302191690836001600160a01b0316021790555080600e846040516143fe91906155bf565b90815260405190819003602001902080546001600160a01b03929092166001600160a01b0319909216919091179055505050565b6001546001600160a01b0316331461448c5760405162461bcd60e51b815260206004820181905260248201527f4f776e61626c653a2063616c6c6572206973206e6f7420746865206f776e65726044820152606401610a3a565b6000600c8360405161449e91906155bf565b908152604051908190036020018120546370a0823160e01b82523060048301526001600160a01b0316906370a082319060240160206040518083038186803b1580156144e957600080fd5b505afa1580156144fd573d6000803e3d6000fd5b505050506040513d601f19601f8201168201806040525081019061452191906153be565b9050808211156145995760405162461bcd60e51b815260206004820152602660248201527f496e73756666696369656e7420746f6b656e2062616c616e636520746f20776960448201527f74686472617700000000000000000000000000000000000000000000000000006064820152608401610a3a565b600c836040516145a991906155bf565b9081526040519081900360200181205463a9059cbb60e01b8252336004830152602482018390526001600160a01b03169063a9059cbb90604401602060405180830381600087803b1580156145fd57600080fd5b505af1158015614611573d6000803e3d6000fd5b505050506040513d601f19601f8201168201806040525081019061463591906151aa565b61463e57600080fd5b505050565b600d602052600090815260409020805461465c9061584d565b80601f01602080910402602001604051908101604052809291908181526020018280546146889061584d565b80156146d55780601f106146aa576101008083540402835291602001916146d5565b820191906000526020600020905b8154815290600101906020018083116146b857829003601f168201915b505050505081565b6000838152600b60205260409020546001600160a01b031633146147435760405162461bcd60e51b815260206004820152601360248201527f73656e646572206973206e6f74206f776e6572000000000000000000000000006044820152606401610a3a565b60008381526007602052604090205460ff16156147a25760405162461bcd60e51b815260206004820152600e60248201527f416c7265616479206f70656e65640000000000000000000000000000000000006044820152606401610a3a565b6040517f095ea7b3000000000000000000000000000000000000000000000000000000008152306004820152602481018490527f00000000000000000000000000000000000000000000000000000000000000006001600160a01b03169063095ea7b390604401600060405180830381600087803b15801561482357600080fd5b505af1158015614837573d6000803e3d6000fd5b50506040516323b872dd60e01b8152336004820152306024820152604481018690527f00000000000000000000000000000000000000000000000000000000000000006001600160a01b031692506323b872dd9150606401600060405180830381600087803b1580156148a957600080fd5b505af11580156148bd573d6000803e3d6000fd5b5050506000848152600760209081526040808320805460ff1916600117905560068252808320869055600d8252909120835161166093509091840190614e61565b6001546001600160a01b031633146149585760405162461bcd60e51b815260206004820181905260248201527f4f776e61626c653a2063616c6c6572206973206e6f7420746865206f776e65726044820152606401610a3a565b6001600160a01b0381166149d45760405162461bcd60e51b815260206004820152602660248201527f4f776e61626c653a206e6577206f776e657220697320746865207a65726f206160448201527f64647265737300000000000000000000000000000000000000000000000000006064820152608401610a3a565b6138aa81614c54565b60007f00000000000000000000000000000000000000000000000000000000000000006001600160a01b031633148015614a255750614a25600554600160a01b900460ff1690565b614a7f5760405162461bcd60e51b815260206004820152602560248201527f43616c6c657220646f6573206e6f7420686176652061646d696e2070726976696044820152646c6567657360d81b6064820152608401610a3a565b614aa97f000000000000000000000000000000000000000000000000000000000000000083614dfe565b92915050565b60008181526008602052604090206005015461010090046001600160a01b0316155b919050565b60008181526008602052604081206001810154600290910154614aa991614b17565b6000614b0482846157eb565b9392505050565b6000614b0482846157cb565b6000614b0482846157b3565b614b2d8282614dfe565b6116ef577f00000000000000000000000000000000000000000000000000000000000000006001600160a01b031663d0e30db0826040518263ffffffff1660e01b81526004016000604051808303818588803b158015614b8c57600080fd5b505af1158015614ba0573d6000803e3d6000fd5b505060405163a9059cbb60e01b81526001600160a01b038681166004830152602482018690527f000000000000000000000000000000000000000000000000000000000000000016935063a9059cbb92506044019050602060405180830381600087803b158015614c1057600080fd5b505af1158015614c24573d6000803e3d6000fd5b505050506040513d601f19601f8201168201806040525081019061463e91906151aa565b6000614b04828461580a565b600180546001600160a01b038381166001600160a01b0319831681179093556040519116919082907f8be0079c531659141344cd1fd0a4f28419497f9722a3daafe3b4186f6b6457e090600090a35050565b60008181526007602052604090205460ff1680614d055760405162461bcd60e51b815260206004820152601960248201527f4974656d206e6f74206c69737465642063757272656e746c79000000000000006044820152606401610a3a565b6040516331a9108f60e11b8152600481018390527f00000000000000000000000000000000000000000000000000000000000000006001600160a01b031690636352211e9060240160206040518083038186803b158015614d6557600080fd5b505afa158015614d79573d6000803e3d6000fd5b505050506040513d601f19601f82011682018060405250810190614d9d91906150ff565b6001600160a01b0316336001600160a01b031614156116ef5760405162461bcd60e51b815260206004820152601860248201527f43616e206e6f7420627579207768617420796f75206f776e00000000000000006044820152606401610a3a565b600080836001600160a01b03168361753090604051600060405180830381858888f193505050503d8060008114614e51576040519150601f19603f3d011682016040523d82523d6000602084013e614e56565b606091505b509095945050505050565b828054614e6d9061584d565b90600052602060002090601f016020900481019282614e8f5760008555614ed5565b82601f10614ea857805160ff1916838001178555614ed5565b82800160010185558215614ed5579182015b82811115614ed5578251825591602001919060010190614eba565b50614ee1929150614f1d565b5090565b508054614ef19061584d565b6000825580601f10614f0357506138aa565b601f0160209004906000526020600020908101906138aa91905b5b80821115614ee15760008155600101614f1e565b600082601f830112614f42578081fd5b81356020614f57614f528361578f565b61575e565b80838252828201915082860187848660051b8901011115614f76578586fd5b855b85811015614f9d578135614f8b816158cf565b84529284019290840190600101614f78565b5090979650505050505050565b600082601f830112614fba578081fd5b81356020614fca614f528361578f565b80838252828201915082860187848660051b8901011115614fe9578586fd5b855b85811015614f9d578135614ffe816158e4565b84529284019290840190600101614feb565b600082601f830112615020578081fd5b81356020615030614f528361578f565b80838252828201915082860187848660051b890101111561504f578586fd5b855b85811015614f9d57813584529284019290840190600101615051565b8035614ad1816158e4565b600082601f830112615088578081fd5b813567ffffffffffffffff8111156150a2576150a26158b9565b6150b5601f8201601f191660200161575e565b8181528460208386010111156150c9578283fd5b816020850160208301379081016020019190915292915050565b6000602082840312156150f4578081fd5b8135614b04816158cf565b600060208284031215615110578081fd5b8151614b04816158cf565b60008060008060008060c08789031215615133578182fd5b863561513e816158cf565b95506020870135945060408701359350606087013567ffffffffffffffff80821115615168578384fd5b6151748a838b01615078565b94506080890135935060a0890135915080821115615190578283fd5b5061519d89828a01615078565b9150509295509295509295565b6000602082840312156151bb578081fd5b8151614b04816158e4565b600080600080600080600060e0888a0312156151e0578081fd5b6151e98861506d565b9650602088013567ffffffffffffffff80821115615205578283fd5b6152118b838c01615010565b975060408a0135915080821115615226578283fd5b6152328b838c01614f32565b965060608a0135915080821115615247578283fd5b6152538b838c01615010565b955060808a0135915080821115615268578283fd5b6152748b838c01614f32565b945060a08a0135915080821115615289578283fd5b6152958b838c01615010565b935060c08a01359150808211156152aa578283fd5b506152b78a828b01614faa565b91505092959891949750929550565b6000602082840312156152d7578081fd5b813567ffffffffffffffff8111156152ed578182fd5b6152f984828501615078565b949350505050565b600080600060608486031215615315578283fd5b833567ffffffffffffffff81111561532b578384fd5b61533786828701615078565b9350506020840135615348816158cf565b91506040840135615358816158cf565b809150509250925092565b60008060408385031215615375578182fd5b823567ffffffffffffffff81111561538b578283fd5b61539785828601615078565b95602094909401359450505050565b6000602082840312156153b7578081fd5b5035919050565b6000602082840312156153cf578081fd5b5051919050565b60008060008060008060c087890312156153ee578384fd5b863595506020870135615400816158cf565b945060408701359350606087013567ffffffffffffffff80821115615168578384fd5b60008060408385031215615435578182fd5b823591506020830135615447816158e4565b809150509250929050565b600080600080600080600060e0888a03121561546c578081fd5b87359650602088013561547e816158e4565b9550604088013567ffffffffffffffff8082111561549a578283fd5b6154a68b838c01615078565b965060608a0135955060808a0135945060a08a01359150808211156154c9578283fd5b506154d68a828b01615078565b92505060c08801356154e7816158cf565b8091505092959891949750929550565b60008060006060848603121561550b578081fd5b83359250602084013567ffffffffffffffff811115615528578182fd5b61553486828701615078565b925050604084013590509250925092565b600080600060608486031215615559578081fd5b8335925060208401359150604084013567ffffffffffffffff81111561557d578182fd5b61558986828701615078565b9150509250925092565b600081518084526155ab816020860160208601615821565b601f01601f19169290920160200192915050565b600082516155d1818460208701615821565b9190910192915050565b600080835482600182811c9150808316806155f757607f831692505b602080841082141561561757634e487b7160e01b87526022600452602487fd5b81801561562b576001811461563c57615668565b60ff19861689528489019650615668565b60008a815260209020885b868110156156605781548b820152908501908301615647565b505084890196505b509498975050505050505050565b600060208252614b046020830184615593565b60008482526001600160a01b0384166020830152606060408301526156b16060830184615593565b95945050505050565b600086825285602083015284604083015260a060608301526156df60a0830185615593565b90506001600160a01b03831660808301529695505050505050565b60006101208b83528a602084015289604084015288606084015280608084015261572681840189615593565b60ff9790971660a084015250506001600160a01b0393841660c082015291831660e08301529091166101009091015295945050505050565b604051601f8201601f1916810167ffffffffffffffff81118282101715615787576157876158b9565b604052919050565b600067ffffffffffffffff8211156157a9576157a96158b9565b5060051b60200190565b600082198211156157c6576157c66158a3565b500190565b6000826157e657634e487b7160e01b81526012600452602481fd5b500490565b6000816000190483118215151615615805576158056158a3565b500290565b60008282101561581c5761581c6158a3565b500390565b60005b8381101561583c578181015183820152602001615824565b838111156116605750506000910152565b600181811c9082168061586157607f821691505b6020821081141561588257634e487b7160e01b600052602260045260246000fd5b50919050565b600060001982141561589c5761589c6158a3565b5060010190565b634e487b7160e01b600052601160045260246000fd5b634e487b7160e01b600052604160045260246000fd5b6001600160a01b03811681146138aa57600080fd5b80151581146138aa57600080fdfea26469706673582212208a75845901ac3c1c96c05e204f80af613cab96ef7543c4138fc74fdbb6e6fa1364736f6c63430008030033",
  "linkReferences": {},
  "deployedLinkReferences": {}
}